:100000000C942A000C943F000C943F000C943F0089
:100010000C943F000C943F000C943F000C943F0064
:100020000C943F000C943F000C943F000C943F0054
:100030000C943F000C943F000C943F000C943F0044
:100040000C943F000C943F000C943F000C943F0034
:100050000C943F0011241FBECFE5D8E0DEBFCDBF1A
:1000600010E0A0E6B0E0E4E4F4E002C005900D92F8
:10007000A236B107D9F70E94CB010C9420020C9450
:1000800000000E9463000E94A50180E00C94BE0164
:10009000CF930E946800C82F20916000482F421B18
:1000A000550BCA0157FF03C09195819591092F3FC8
:1000B00011F0049734F084E68C1B0E94BE01C093BB
:1000C0006000CF9108950C94890180E00C94920116
:1000D0000E9465008436910510F484E690E085382E
:1000E00023E0920710F084E893E024E833E0281B33
:1000F000390BA4E6B0E00E94110220E233E040E0B8
:1001000050E00E94EF01822F08958FEF8ABB87BBDA
:1001100084BB81BB08958430F8F46830E8F4413042
:10012000E1F421E030E001C0220F6A95EAF7823065
:1001300061F0833071F0813021F08AB3282B2ABB23
:10014000089587B3282B27BB089584B3282B24BB9D
:10015000089581B3282B21BB08954111FDCF21E0E3
:1001600030E001C0220F6A95EAF72095823051F005
:10017000833059F0813019F08AB32823E0CF87B358
:100180002823E1CF84B32823E2CF81B32823E3CF10
:100190008430F8F46830E8F44130E1F421E030E0F4
:1001A00001C0220F6A95EAF7823061F0833071F066
:1001B000813021F08BB3282B2BBB089588B3282BDB
:1001C00028BB089585B3282B25BB089582B3282B1F
:1001D00022BB08954111FDCF21E030E001C0220F84
:1001E0006A95EAF72095823051F0833059F08130DA
:1001F00019F08BB32823E0CF88B32823E1CF85B350
:100200002823E2CF82B32823E3CF8430B8F46830C8
:10021000A8F4823079F0833079F0813049F089B3E5
:1002200090E002C0959587956A95E2F781700895F0
:1002300086B3F6CF83B3F4CF80B3F2CF80E00895D6
:10024000611110C0813041F028F0823039F08330E4
:1002500039F008951ABA089517BA089514BA08958E
:1002600011BA0895613099F4813049F028F0823054
:1002700049F0833051F008958FEF8ABB08958FEFD6
:1002800087BB08958FEF84BB08958FEF81BB0895DE
:10029000813041F028F0823039F0833039F0089510
:1002A0006BBB089568BB089565BB089562BB089554
:1002B000813049F030F0823041F0833041F080E00D
:1002C000089589B3089586B3089583B3089580B3DC
:1002D00008958430E8F46830D8F421E030E001C0BB
:1002E000220F6A95EAF7823061F0833071F0813035
:1002F00021F08BB328272BBB089588B3282728BB70
:10030000089585B3282725BB089582B3282722BBEB
:1003100008953E9A3F983D9886B1887F866086B959
:10032000379A0895883070F497B1907E892B87B9F9
:10033000369A349BFECF349A94B185B18927982799
:100340008927089590E080E0089541E063E081E02E
:100350000E948B0083B7806483BF83B7886083BFAC
:1003600083B7806283BF83B78F7E83BF1CBE83B792
:10037000826083BF83B7816083BF0895853608F0AC
:1003800084E62FEF829FC001112464E670E00E9492
:10039000DB016CBF08950E9485000E9441000E940D
:1003A00048002FEF80E792E0215080409040E1F735
:1003B00000C00000F4CFAA1BBB1B51E107C0AA1F5D
:1003C000BB1FA617B70710F0A61BB70B881F991FF6
:1003D0005A95A9F780959095BC01CD010895A1E2A9
:1003E0001A2EAA1BBB1BFD010DC0AA1FBB1FEE1FAF
:1003F000FF1FA217B307E407F50720F0A21BB30BFA
:10040000E40BF50B661F771F881F991F1A9469F775
:1004100060957095809590959B01AC01BD01CF01D1
:100420000895A29FB001B39FC001A39F700D811DCD
:100430001124911DB29F700D811D1124911D0895ED
:04044000F894FFCF5E
:02044400FF00B7
:00000001FF
