:100000000C942A000C943F000C943F000C943F0089
:100010000C943F000C943F000C943F000C943F0064
:100020000C943F000C943F000C943F000C943F0054
:100030000C943F000C943F000C943F000C943F0044
:100040000C943F000C943F000C943F000C943F0034
:100050000C943F0011241FBECFE5D8E0DEBFCDBF1A
:1000600010E0A0E6B0E0ECE3F4E002C005900D92F1
:10007000A236B107D9F70E94C7010C941C020C9458
:1000800000000E9463000E948A0080E00C948C00B3
:10009000CF930E946D00C82F20916000482F421B13
:1000A000550BCA0157FF03C09195819591092F3FC8
:1000B00011F0049734F084E68C1B0E948C00C093EE
:1000C0006000CF91089540E060E080E00E949F00D2
:1000D0000C947A0180E00C9482010E946A008436BC
:1000E000910510F484E690E0853823E0920710F043
:1000F00084E893E024E833E0281B390BA4E6B0E061
:100100000E940D0220E233E040E050E00E94EB014B
:10011000822F08950C949101853608F084E62FEF24
:10012000829FC001112464E670E00E94D701862FEF
:100130000C94C5011ABA17BA14BA11BA08958430CA
:10014000E8F44130E1F421E030E001C0220F6A958B
:10015000EAF7823061F0833071F0813021F08AB3A8
:10016000282B2ABB089587B3282B27BB089584B377
:10017000282B24BB089581B3282B21BB089541115E
:10018000FDCF21E030E001C0220F6A95EAF720950B
:10019000823051F0833059F0813019F08AB328232E
:1001A000E0CF87B32823E1CF84B32823E2CF81B304
:1001B0002823E3CF8430F8F46830E8F44130E1F4E8
:1001C00021E030E001C0220F6A95EAF7823061F049
:1001D000833071F0813021F08BB3282B2BBB089535
:1001E00088B3282B28BB089585B3282B25BB0895F9
:1001F00082B3282B22BB08954111FDCF21E030E0CE
:1002000001C0220F6A95EAF72095823051F08330C1
:1002100059F0813019F08BB32823E0CF88B328231D
:10022000E1CF85B32823E2CF82B32823E3CF843004
:10023000B8F46830A8F4823079F0833079F08130F6
:1002400049F089B390E002C0959587956A95E2F7E9
:100250008170089586B3F6CF83B3F4CF80B3F2CF25
:100260008AE00895843018F5613091F4823051F0BD
:10027000833059F0813019F08FEF8ABB08958FEFEA
:1002800087BB08958FEF84BB08958FEF81BB0895DE
:1002900061110DC0823041F0833041F0813011F0A6
:1002A0001ABA089517BA089514BA089511BA08959C
:1002B000843068F4823041F0833041F0813011F0B5
:1002C0006BBB089568BB089565BB089562BB089534
:1002D000843070F4823041F0833041F0813011F08D
:1002E00089B3089586B3089583B3089580B30895BC
:1002F00080E008953F983E9A3D98329A319A30981E
:10030000379A089597B1907E97B997B18770892BE6
:1003100087B9369A3699FECF84B185B184B195B14B
:10032000089541E063E081E00E949F0083B780640C
:1003300083BF83B7886083BF83B7806283BF83B77F
:100340008F7E83BF1CBE83B7816083BF83B782600B
:1003500083BF83B78B7F83BF089583B7816083BFDB
:1003600083B78D7F83BF83B7846083BF82E324E636
:1003700022BF08B600FEFDCF98B7916098BF8150AC
:10038000B9F783B7887F83BF08958CBF08950E9413
:100390009A000E9441000E9448002FEF80E792E0FF
:1003A000215080409040E1F700C00000F4CFAA1B2C
:1003B000BB1B51E107C0AA1FBB1FA617B70710F050
:1003C000A61BB70B881F991F5A95A9F78095909582
:1003D000BC01CD010895A1E21A2EAA1BBB1BFD0191
:1003E0000DC0AA1FBB1FEE1FFF1FA217B307E40714
:1003F000F50720F0A21BB30BE40BF50B661F771F6C
:10040000881F991F1A9469F760957095809590954B
:100410009B01AC01BD01CF010895A29FB001B39F24
:10042000C001A39F700D811D1124911DB29F700DFD
:0C043000811D1124911D0895F894FFCF48
:02043C00FF00BF
:00000001FF
